{
  "_format": "hh-sol-artifact-1",
  "contractName": "Calculator",
  "sourceName": "contracts/Calculator.sol",
  "abi": [
    {
      "inputs": [
        {
          "internalType": "uint8",
          "name": "width",
          "type": "uint8"
        },
        {
          "internalType": "uint8",
          "name": "length",
          "type": "uint8"
        }
      ],
      "name": "AreaOfRectangle",
      "outputs": [
        {
          "internalType": "uint256",
          "name": "",
          "type": "uint256"
        }
      ],
      "stateMutability": "nonpayable",
      "type": "function"
    },
    {
      "inputs": [
        {
          "internalType": "uint8",
          "name": "side",
          "type": "uint8"
        }
      ],
      "name": "AreaOfSquare",
      "outputs": [
        {
          "internalType": "uint256",
          "name": "",
          "type": "uint256"
        }
      ],
      "stateMutability": "nonpayable",
      "type": "function"
    },
    {
      "inputs": [
        {
          "internalType": "uint8",
          "name": "height",
          "type": "uint8"
        },
        {
          "internalType": "uint256",
          "name": "base",
          "type": "uint256"
        }
      ],
      "name": "AreaOfTriangle",
      "outputs": [
        {
          "internalType": "uint256",
          "name": "",
          "type": "uint256"
        }
      ],
      "stateMutability": "nonpayable",
      "type": "function"
    },
    {
      "inputs": [],
      "name": "areaOfRectangle",
      "outputs": [
        {
          "internalType": "uint256",
          "name": "",
          "type": "uint256"
        }
      ],
      "stateMutability": "view",
      "type": "function"
    },
    {
      "inputs": [],
      "name": "areaOfTriangle",
      "outputs": [
        {
          "internalType": "uint256",
          "name": "",
          "type": "uint256"
        }
      ],
      "stateMutability": "view",
      "type": "function"
    },
    {
      "inputs": [],
      "name": "areaSquare",
      "outputs": [
        {
          "internalType": "uint256",
          "name": "",
          "type": "uint256"
        }
      ],
      "stateMutability": "view",
      "type": "function"
    }
  ],
  "bytecode": "0x608060405234801561001057600080fd5b50610457806100206000396000f3fe608060405234801561001057600080fd5b50600436106100625760003560e01c80630588e8db146100675780631dbdf02f146100855780634cf767f4146100a3578063643c7f78146100c15780639489bc07146100f1578063988ec06f14610121575b600080fd5b61006f610151565b60405161007c91906101e1565b60405180910390f35b61008d610157565b60405161009a91906101e1565b60405180910390f35b6100ab61015d565b6040516100b891906101e1565b60405180910390f35b6100db60048036038101906100d6919061023a565b610163565b6040516100e891906101e1565b60405180910390f35b61010b60048036038101906101069190610293565b610180565b60405161011891906101e1565b60405180910390f35b61013b600480360381019061013691906102d3565b6101aa565b60405161014891906101e1565b60405180910390f35b60005481565b60025481565b60015481565b600081826101719190610342565b60ff1660008190559050919050565b600060028360ff1683610193919061037f565b61019d91906103f0565b6001819055905092915050565b600081836101b89190610342565b60ff166002819055905092915050565b6000819050919050565b6101db816101c8565b82525050565b60006020820190506101f660008301846101d2565b92915050565b600080fd5b600060ff82169050919050565b61021781610201565b811461022257600080fd5b50565b6000813590506102348161020e565b92915050565b6000602082840312156102505761024f6101fc565b5b600061025e84828501610225565b91505092915050565b610270816101c8565b811461027b57600080fd5b50565b60008135905061028d81610267565b92915050565b600080604083850312156102aa576102a96101fc565b5b60006102b885828601610225565b92505060206102c98582860161027e565b9150509250929050565b600080604083850312156102ea576102e96101fc565b5b60006102f885828601610225565b925050602061030985828601610225565b9150509250929050565b7f4e487b7100000000000000000000000000000000000000000000000000000000600052601160045260246000fd5b600061034d82610201565b915061035883610201565b925082820261036681610201565b915080821461037857610377610313565b5b5092915050565b600061038a826101c8565b9150610395836101c8565b92508282026103a3816101c8565b915082820484148315176103ba576103b9610313565b5b5092915050565b7f4e487b7100000000000000000000000000000000000000000000000000000000600052601260045260246000fd5b60006103fb826101c8565b9150610406836101c8565b925082610416576104156103c1565b5b82820490509291505056fea26469706673582212202a23ea2d8f9e9338c9c52427add872dce8719218c711939035d320593dc7523b64736f6c63430008180033",
  "linkReferences": {},
  "deployedLinkReferences": {}
}